{
  "_format": "hh-sol-artifact-1",
  "contractName": "BasicNft",
  "sourceName": "contracts/test/BasicNFT.sol",
  "abi": [
    {
      "inputs": [],
      "stateMutability": "nonpayable",
      "type": "constructor"
    },
    {
      "inputs": [
        {
          "internalType": "address",
          "name": "sender",
          "type": "address"
        },
        {
          "internalType": "uint256",
          "name": "tokenId",
          "type": "uint256"
        },
        {
          "internalType": "address",
          "name": "owner",
          "type": "address"
        }
      ],
      "name": "ERC721IncorrectOwner",
      "type": "error"
    },
    {
      "inputs": [
        {
          "internalType": "address",
          "name": "operator",
          "type": "address"
        },
        {
          "internalType": "uint256",
          "name": "tokenId",
          "type": "uint256"
        }
      ],
      "name": "ERC721InsufficientApproval",
      "type": "error"
    },
    {
      "inputs": [
        {
          "internalType": "address",
          "name": "approver",
          "type": "address"
        }
      ],
      "name": "ERC721InvalidApprover",
      "type": "error"
    },
    {
      "inputs": [
        {
          "internalType": "address",
          "name": "operator",
          "type": "address"
        }
      ],
      "name": "ERC721InvalidOperator",
      "type": "error"
    },
    {
      "inputs": [
        {
          "internalType": "address",
          "name": "owner",
          "type": "address"
        }
      ],
      "name": "ERC721InvalidOwner",
      "type": "error"
    },
    {
      "inputs": [
        {
          "internalType": "address",
          "name": "receiver",
          "type": "address"
        }
      ],
      "name": "ERC721InvalidReceiver",
      "type": "error"
    },
    {
      "inputs": [
        {
          "internalType": "address",
          "name": "sender",
          "type": "address"
        }
      ],
      "name": "ERC721InvalidSender",
      "type": "error"
    },
    {
      "inputs": [
        {
          "internalType": "uint256",
          "name": "tokenId",
          "type": "uint256"
        }
      ],
      "name": "ERC721NonexistentToken",
      "type": "error"
    },
    {
      "anonymous": false,
      "inputs": [
        {
          "indexed": true,
          "internalType": "address",
          "name": "owner",
          "type": "address"
        },
        {
          "indexed": true,
          "internalType": "address",
          "name": "approved",
          "type": "address"
        },
        {
          "indexed": true,
          "internalType": "uint256",
          "name": "tokenId",
          "type": "uint256"
        }
      ],
      "name": "Approval",
      "type": "event"
    },
    {
      "anonymous": false,
      "inputs": [
        {
          "indexed": true,
          "internalType": "address",
          "name": "owner",
          "type": "address"
        },
        {
          "indexed": true,
          "internalType": "address",
          "name": "operator",
          "type": "address"
        },
        {
          "indexed": false,
          "internalType": "bool",
          "name": "approved",
          "type": "bool"
        }
      ],
      "name": "ApprovalForAll",
      "type": "event"
    },
    {
      "anonymous": false,
      "inputs": [
        {
          "indexed": true,
          "internalType": "uint256",
          "name": "tokenId",
          "type": "uint256"
        }
      ],
      "name": "DogMinted",
      "type": "event"
    },
    {
      "anonymous": false,
      "inputs": [
        {
          "indexed": true,
          "internalType": "address",
          "name": "from",
          "type": "address"
        },
        {
          "indexed": true,
          "internalType": "address",
          "name": "to",
          "type": "address"
        },
        {
          "indexed": true,
          "internalType": "uint256",
          "name": "tokenId",
          "type": "uint256"
        }
      ],
      "name": "Transfer",
      "type": "event"
    },
    {
      "inputs": [],
      "name": "TOKEN_URI",
      "outputs": [
        {
          "internalType": "string",
          "name": "",
          "type": "string"
        }
      ],
      "stateMutability": "view",
      "type": "function"
    },
    {
      "inputs": [
        {
          "internalType": "address",
          "name": "to",
          "type": "address"
        },
        {
          "internalType": "uint256",
          "name": "tokenId",
          "type": "uint256"
        }
      ],
      "name": "approve",
      "outputs": [],
      "stateMutability": "nonpayable",
      "type": "function"
    },
    {
      "inputs": [
        {
          "internalType": "address",
          "name": "owner",
          "type": "address"
        }
      ],
      "name": "balanceOf",
      "outputs": [
        {
          "internalType": "uint256",
          "name": "",
          "type": "uint256"
        }
      ],
      "stateMutability": "view",
      "type": "function"
    },
    {
      "inputs": [
        {
          "internalType": "uint256",
          "name": "tokenId",
          "type": "uint256"
        }
      ],
      "name": "getApproved",
      "outputs": [
        {
          "internalType": "address",
          "name": "",
          "type": "address"
        }
      ],
      "stateMutability": "view",
      "type": "function"
    },
    {
      "inputs": [],
      "name": "getTokenCounter",
      "outputs": [
        {
          "internalType": "uint256",
          "name": "",
          "type": "uint256"
        }
      ],
      "stateMutability": "view",
      "type": "function"
    },
    {
      "inputs": [
        {
          "internalType": "address",
          "name": "owner",
          "type": "address"
        },
        {
          "internalType": "address",
          "name": "operator",
          "type": "address"
        }
      ],
      "name": "isApprovedForAll",
      "outputs": [
        {
          "internalType": "bool",
          "name": "",
          "type": "bool"
        }
      ],
      "stateMutability": "view",
      "type": "function"
    },
    {
      "inputs": [],
      "name": "mintNft",
      "outputs": [
        {
          "internalType": "uint256",
          "name": "",
          "type": "uint256"
        }
      ],
      "stateMutability": "nonpayable",
      "type": "function"
    },
    {
      "inputs": [],
      "name": "name",
      "outputs": [
        {
          "internalType": "string",
          "name": "",
          "type": "string"
        }
      ],
      "stateMutability": "view",
      "type": "function"
    },
    {
      "inputs": [
        {
          "internalType": "uint256",
          "name": "tokenId",
          "type": "uint256"
        }
      ],
      "name": "ownerOf",
      "outputs": [
        {
          "internalType": "address",
          "name": "",
          "type": "address"
        }
      ],
      "stateMutability": "view",
      "type": "function"
    },
    {
      "inputs": [
        {
          "internalType": "address",
          "name": "from",
          "type": "address"
        },
        {
          "internalType": "address",
          "name": "to",
          "type": "address"
        },
        {
          "internalType": "uint256",
          "name": "tokenId",
          "type": "uint256"
        }
      ],
      "name": "safeTransferFrom",
      "outputs": [],
      "stateMutability": "nonpayable",
      "type": "function"
    },
    {
      "inputs": [
        {
          "internalType": "address",
          "name": "from",
          "type": "address"
        },
        {
          "internalType": "address",
          "name": "to",
          "type": "address"
        },
        {
          "internalType": "uint256",
          "name": "tokenId",
          "type": "uint256"
        },
        {
          "internalType": "bytes",
          "name": "data",
          "type": "bytes"
        }
      ],
      "name": "safeTransferFrom",
      "outputs": [],
      "stateMutability": "nonpayable",
      "type": "function"
    },
    {
      "inputs": [
        {
          "internalType": "address",
          "name": "operator",
          "type": "address"
        },
        {
          "internalType": "bool",
          "name": "approved",
          "type": "bool"
        }
      ],
      "name": "setApprovalForAll",
      "outputs": [],
      "stateMutability": "nonpayable",
      "type": "function"
    },
    {
      "inputs": [
        {
          "internalType": "bytes4",
          "name": "interfaceId",
          "type": "bytes4"
        }
      ],
      "name": "supportsInterface",
      "outputs": [
        {
          "internalType": "bool",
          "name": "",
          "type": "bool"
        }
      ],
      "stateMutability": "view",
      "type": "function"
    },
    {
      "inputs": [],
      "name": "symbol",
      "outputs": [
        {
          "internalType": "string",
          "name": "",
          "type": "string"
        }
      ],
      "stateMutability": "view",
      "type": "function"
    },
    {
      "inputs": [
        {
          "internalType": "uint256",
          "name": "tokenId",
          "type": "uint256"
        }
      ],
      "name": "tokenURI",
      "outputs": [
        {
          "internalType": "string",
          "name": "",
          "type": "string"
        }
      ],
      "stateMutability": "view",
      "type": "function"
    },
    {
      "inputs": [
        {
          "internalType": "address",
          "name": "from",
          "type": "address"
        },
        {
          "internalType": "address",
          "name": "to",
          "type": "address"
        },
        {
          "internalType": "uint256",
          "name": "tokenId",
          "type": "uint256"
        }
      ],
      "name": "transferFrom",
      "outputs": [],
      "stateMutability": "nonpayable",
      "type": "function"
    }
  ],
  "bytecode": "0x6080346200030f576001600160401b039060409080820183811182821017620002f95782526005815260209064446f67696560d81b8282015282519383850185811082821117620002f95784526003855262444f4760e81b838601528151818111620002f9576000938454916001948584811c94168015620002ee575b83851014620002da578190601f9485811162000287575b5083908583116001146200022357889262000217575b5050600019600383901b1c191690851b1785555b8651928311620002035783548481811c91168015620001f8575b82821014620001e4578281116200019c575b50809183116001146200013557508394958293949262000129575b5050600019600383901b1c191690821b1790555b60065551610ef89081620003158239f35b01519050388062000104565b90601f198316968486528286209286905b898210620001845750508385969798106200016a575b505050811b01905562000118565b015160001960f88460031b161c191690553880806200015c565b80878596829496860151815501950193019062000146565b8486528186208380860160051c820192848710620001da575b0160051c019085905b828110620001ce575050620000e9565b878155018590620001be565b92508192620001b5565b634e487b7160e01b86526022600452602486fd5b90607f1690620000d7565b634e487b7160e01b85526041600452602485fd5b015190503880620000a9565b8880528489208894509190601f1984168a5b8782821062000270575050841162000256575b505050811b018555620000bd565b015160001960f88460031b161c1916905538808062000248565b8385015186558b9790950194938401930162000235565b9091508780528388208580850160051c820192868610620002d0575b918991869594930160051c01915b828110620002c157505062000093565b8a8155859450899101620002b1565b92508192620002a3565b634e487b7160e01b87526022600452602487fd5b93607f16936200007c565b634e487b7160e01b600052604160045260246000fd5b600080fdfe608060408181526004918236101561001657600080fd5b600092833560e01c91826301ffc9a7146109865750816306fdde03146108bb578163081812fc1461087f578163095ea7b3146107a257816323b872dd1461078a57816342842e0e1461075b5781636352211e1461072a5781636e02007d1461070b57816370a08231146106b657816378ce90351461069857816395d89b4114610582578163a22cb465146104e4578163b88d4fde1461044a578163c2229fea146101d2578163c87b56dd14610125575063e985e9c5146100d557600080fd5b3461012157806003193601126101215760ff816020936100f3610a31565b6100fb610a4c565b6001600160a01b0391821683526005875283832091168252855220549151911615158152f35b5080fd5b905082346101cf5760203660031901126101cf57506001600160a01b0361014c8235610d3c565b1615610175576101718261015e610b07565b90519182916020835260208301906109f1565b0390f35b6020608492519162461bcd60e51b8352820152602f60248201527f4552433732314d657461646174613a2055524920717565727920666f72206e6f60448201526e3732bc34b9ba32b73a103a37b5b2b760891b6064820152fd5b80fd5b83915034610121578160031936011261012157600654908351936101f585610a97565b8385523315610434578284526020946002865260018060a01b038286205416848115159182610401575b3380895260038a528589208054600101905582895260028a5285892080546001600160a01b03191682179055907fddf252ad1be2c89b69c2b068fc378daa952ba7f163c4a11628f55a4df523b3ef8980a46103ea57333b6102ce575b505192827fef1da42f89c42f48befa143007e6f5efd84a2d1cc3dc97c5edd2d3373220f66d8280a260065491600183018093116102bb5750506006558152f35b634e487b7160e01b825260119052602490fd5b81939194929451868180610309630a85bd0160e11b95868352338b8401528860248401528760448401526080606484015260848301906109f1565b038187335af18491816103a6575b50610374575050503d60001461036c573d61033181610aeb565b9061033e84519283610ac9565b81528091853d92013e5b80519384610366578251633250574960e11b81523381860152602490fd5b84925001fd5b506060610348565b9294919391926001600160e01b0319160361038f578561027b565b602492505190633250574960e11b82523390820152fd5b9091508781813d83116103e3575b6103be8183610ac9565b810103126103df57516001600160e01b0319811681036103df579088610317565b8480fd5b503d6103b4565b81516339e3563760e11b8152808401869052602490fd5b600082815260046020526040902080546001600160a01b031916905580885260038952848820805460001901905561021f565b51633250574960e11b8152908101839052602490fd5b919050346104e05760803660031901126104e057610466610a31565b61046e610a4c565b60443591856064359567ffffffffffffffff8711610121573660238801121561012157860135956104aa6104a188610aeb565b96519687610ac9565b868652366024888301011161012157866104dd9760246020930183890137860101526104d7838383610b9d565b33610d77565b80f35b8280fd5b919050346104e057806003193601126104e0576104ff610a31565b90602435918215158093036103df576001600160a01b031692831561056d5750338452600560205280842083855260205280842060ff1981541660ff8416179055519081527f17307eab39ab6107e8899845ad3d59bd9653f200f220920489ca2b5937696c3160203392a380f35b836024925191630b61174360e31b8352820152fd5b8284346101cf57806003193601126101cf578151918160019283549384811c9181861695861561068e575b602096878510811461067b578899509688969785829a5291826000146106545750506001146105f9575b50505061017192916105ea910385610ac9565b519282849384528301906109f1565b91908693508083527fb10e2d527612073b26eecdfd717e6a320cf44b4afac2b0732d9fcbe2b7fa0cf65b82841061063c57505050820101816105ea6101716105d7565b8054848a018601528895508794909301928101610623565b60ff19168782015293151560051b860190930193508492506105ea915061017190506105d7565b634e487b7160e01b835260228a52602483fd5b92607f16926105ad565b5050346101215781600319360112610121576101719061015e610b07565b8284346101cf5760203660031901126101cf576001600160a01b036106d9610a31565b169283156106f65750806020938392526003845220549051908152f35b91516322718ad960e21b815291820152602490fd5b5050346101215781600319360112610121576020906006549051908152f35b8284346101cf5760203660031901126101cf575061074a60209235610d3c565b90516001600160a01b039091168152f35b505034610121576104dd9061076f36610a62565b9192519261077c84610a97565b8584526104d7838383610b9d565b83346101cf576104dd61079c36610a62565b91610b9d565b919050346104e057806003193601126104e0576107bd610a31565b916024356107ca81610d3c565b3315158061086c575b80610843575b61082d576001600160a01b039485169482918691167f8c5be1e5ebec7d5bd14f71427d1e84f3dd0314c0f7b2291e5b200ac8c7c3b9258880a48452602052822080546001600160a01b031916909117905580f35b835163a9fbf51f60e01b81523381850152602490fd5b506001600160a01b03811686526005602090815284872033885290528386205460ff16156107d9565b506001600160a01b0381163314156107d3565b9050346104e05760203660031901126104e0579182602093356108a181610d3c565b50825283528190205490516001600160a01b039091168152f35b8284346101cf57806003193601126101cf5781519181825492600184811c9181861695861561097c575b602096878510811461067b578899509688969785829a5291826000146106545750506001146109215750505061017192916105ea910385610ac9565b91908693508280527f290decd9548b62a8d60345a988386fc84ba6bc95484008f6362f93160ef3e5635b82841061096457505050820101816105ea6101716105d7565b8054848a01860152889550879490930192810161094b565b92607f16926108e5565b8491346104e05760203660031901126104e0573563ffffffff60e01b81168091036104e057602092506380ac58cd60e01b81149081156109e0575b81156109cf575b5015158152f35b6301ffc9a760e01b149050836109c8565b635b5e139f60e01b811491506109c1565b919082519283825260005b848110610a1d575050826000602080949584010152601f8019910116010190565b6020818301810151848301820152016109fc565b600435906001600160a01b0382168203610a4757565b600080fd5b602435906001600160a01b0382168203610a4757565b6060906003190112610a47576001600160a01b03906004358281168103610a4757916024359081168103610a47579060443590565b6020810190811067ffffffffffffffff821117610ab357604052565b634e487b7160e01b600052604160045260246000fd5b90601f8019910116810190811067ffffffffffffffff821117610ab357604052565b67ffffffffffffffff8111610ab357601f01601f191660200190565b604051906080820182811067ffffffffffffffff821117610ab357604052605782527f67342f3f66696c656e616d653d302d5055472e6a736f6e0000000000000000006060837f697066733a2f2f62616679626569673337696f6972373673376d67356f6f626560208201527f746e636f6a636d3363336878617379643472766964346a71687934676b61686560408201520152565b6001600160a01b039182169290918315610d2357600092828452826020956002875260409684888820541696879133151580610c8d575b509060027fddf252ad1be2c89b69c2b068fc378daa952ba7f163c4a11628f55a4df523b3ef9284610c5a575b858352600381528b8320805460010190558683525289812080546001600160a01b0319168517905580a41692838303610c395750505050565b6064945051926364283d7b60e01b8452600484015260248301526044820152fd5b600087815260046020526040902080546001600160a01b0319169055848352600381528b83208054600019019055610c00565b91939450915080610ce2575b15610ca957859291879138610bd4565b878688610cc6576024915190637e27328960e01b82526004820152fd5b604491519063177e802f60e01b82523360048301526024820152fd5b503387148015610d07575b80610c995750858252600481523385898420541614610c99565b5086825260058152878220338352815260ff8883205416610ced565b604051633250574960e11b815260006004820152602490fd5b6000818152600260205260409020546001600160a01b0316908115610d5f575090565b60249060405190637e27328960e01b82526004820152fd5b909192833b610d88575b5050505050565b604051630a85bd0160e11b8082526001600160a01b039384166004830152938316602482015260448101919091526080606482015260209591909316939091908390610dd89060848301906109f1565b039285816000958187895af1849181610e82575b50610e4c575050503d600014610e44573d610e0681610aeb565b90610e146040519283610ac9565b81528091843d92013e5b80519283610e3f57604051633250574960e11b815260048101849052602490fd5b019050fd5b506060610e1e565b919450915063ffffffff60e01b1603610e6a57503880808080610d81565b60249060405190633250574960e11b82526004820152fd5b9091508681813d8311610ebb575b610e9a8183610ac9565b810103126103df57516001600160e01b0319811681036103df579038610dec565b503d610e9056fea264697066735822122041f900cc791e080beac8e957c3633552827a9fdb5b11f11b686fb9cab159c65464736f6c63430008140033",
  "linkReferences": {},
  "deployedLinkReferences": {}
}